:100000000C9436000C945E000C945E000C945E0020
:100010000C945E000C945E000C945E000C945E00E8
:100020000C945E000C94D60C0C945E000C945E0054
:100030000C945E000C945E000C945E000C945E00C8
:100040000C945E000C945E000C94130C0C944B0CFE
:100050000C945E000C945E000C945E000C945E00A8
:100060000C945E000C945E00040E050E11241FBE5D
:10007000CFEFD8E0DEBFCDBF11E0A0E0B1E0E0E916
:10008000FFE202C005900D92AE31B107D9F713E03F
:10009000AEE1B1E001C01D92A030B107E1F710E080
:1000A000CAE6D0E004C02297FE010E944316C8367B
:1000B000D107C9F70E943E020C94BB170C940000B4
:1000C0008C3431F0823549F1823409F06FC04AC076
:1000D00080EB9FEF60E570E00E942B0A84E690E0E1
:1000E0000E94210D8CEE92E061E00E94180E80913A
:1000F000EE029091EF0285369105A0F38091F00217
:100100009091F102893C910568F38091F2029091FF
:10011000F3028536910530F349C080E590E060EB4D
:100120007FEF0E942B0A84E690E00E94210D8CEE66
:1001300092E061E00E94180E8091EE029091EF0231
:1001400085369105A0F38091F0029091F102893CEF
:10015000910568F38091F2029091F3028536910542
:1001600030F324C080E590E060EB7FEF0E942B0A23
:100170008CE291E00E94210D8CEE92E061E00E9401
:10018000180E8091EE029091EF0285369105A0F352
:100190008091F0029091F102893C910568F3809181
:1001A000F2029091F3028536910530F380E090E001
:1001B00060E070E00E942B0A08952F923F924F92C8
:1001C0005F926F927F928F929F92AF92BF92CF92E7
:1001D000DF92EF92FF920F931F93DF93CF93CDB7F0
:1001E000DEB72A970FB6F894DEBF0FBECDBF6624E8
:1001F0007724AA24BB2465011E010894211C311C0C
:100200006CE3462E512CC10161E00E94180E50E3B0
:10021000852E58EF952E880E991EC401AA2797FDAA
:10022000A095BA2FA80EB91ECA1EDB1EC601B501C5
:1002300020E137E240E050E00E94EF1579018A01A9
:10024000940126193709C901880F991F820F931F3E
:1002500062E070E00E94BA159B012E0D3F1DC401A3
:1002600064E170E00E94BA15260F371F2D33310567
:1002700074F48FEF243C38071CF424EC3FEF02C0E9
:1002800037FF07C0C901CC966CE370E007C02CE3D0
:1002900030E0B201621B730B8CE390E00E942B0AEA
:1002A0008B819C818436910550F48D819E818436AA
:1002B000910528F48F8198858436910560F08981B5
:1002C0009A81893C910538F4340189859A85893C65
:1002D000910508F498CF82E390E062E370E00E9419
:1002E0002B0A8CED90E00E94210D80E090E060E010
:1002F00070E00E942B0A2A960FB6F894DEBF0FBE5C
:10030000CDBFCF91DF911F910F91FF90EF90DF90C4
:10031000CF90BF90AF909F908F907F906F905F90A5
:100320004F903F902F9008950E94FD0680E091E04D
:100330000E94E90780E061E00E94CD060E9402056C
:10034000A0E0B0E0BC01CD010E94C80788E091E0C8
:100350000E94E90760E875E280E090E00E94720B7D
:1003600088E892E064E60E944A0A80E00E94430B1B
:1003700080ED97E00E94930E08950E94D90D8CE3C2
:1003800090E064EC7FEF0E942B0A03C081E00E94A2
:10039000330E0E94870D6A3F710581059105B0F308
:1003A00084EC9FEF6CE370E00E942B0A03C081E0B5
:1003B0000E94330E0E94870D6E5E72408040904016
:1003C000B0F38CE390E064EC7FEF0E942B0A03C053
:1003D00081E00E94330E0E94870D685E734080406A
:1003E0009040B0F380E090E060E070E00E942B0A63
:1003F0000895EF92FF920F931F930E94870D7B0148
:100400008C0188EE93E0A0E0B0E0E80EF91E0A1F30
:100410001B1F0E947D0A90911E01891739F40E94CA
:10042000870DE616F7060807190798F70E94870D4B
:100430006E157F058007910740F081E090E0909372
:10044000200180931F019FEF13C080911E01E82FB0
:10045000F0E0E857FD4F90818F5F80931E01E82FF9
:10046000F0E0E957FD4F1082833611F410921E011F
:10047000892F1F910F91FF90EF900895FF920F9396
:100480001F93CF93DF930E949401FF24F39421C024
:100490000E94FD0680E091E00E94E90780E061E0B3
:1004A0000E94CD060E940205A0E0B0E0BC01CD0193
:1004B0000E94C80788E091E00E94E90780E0FF20E1
:1004C00009F481E0F82E882311F05F9A01C05F984B
:1004D000579A0E94F901809388018230C9F61092E0
:1004E000200110921F010E94F901809389018091DF
:1004F0001F0190912001019709F476C00E94F90133
:1005000080938A0180911F0190912001019709F445
:100510006BC080918901882319F4C3E0D0E017C033
:10052000C3E0D0E0082F10E00D5F1F4F0DC00E9408
:10053000F901FE01E857FE4F8083219680911F014B
:1005400090912001019719F00C171D0781F70E9467
:10055000F901FE01E857FE4F808380911F019091C1
:100560002001019709F440C021960E94F901482F0B
:10057000FE01E857FE4F808380911F01909120017A
:10058000019791F190E020E030E0F901E857FE4F4B
:10059000808198272F5F3F4F2C173D07B4F39417A6
:1005A00019F580918A01813051F0813028F0823034
:1005B00049F0833091F40BC00E94BD010EC00E942F
:1005C000DD000BC080918B010E94600006C080E0BE
:1005D00090E060E070E00E942B0A82E390E00E94CD
:1005E000210D8DE091E006C082E390E00E94210D94
:1005F0008EE091E061E00E94100C6BCF982F80326A
:1006000078F487E880937A0080917C00806480761B
:10061000892B80937C0080917A00806480937A009B
:10062000089580917C0085FF05C080917900282F76
:1006300030E004C02091780030917900C90108951C
:100640009093100180930F0108950895089580916B
:100650007C0085FF05C080917900282F30E004C020
:100660002091780030917900C9010895282F8032B7
:10067000B0F487E880937A0080917C00982F906492
:10068000662311F0806C02C0892F8F77807E822BC9
:1006900080937C0080917A00806480937A00089532
:1006A000982F803278F487E880937A0080917C00DC
:1006B00080648076892B80937C0080917A008064AE
:1006C00080937A0080917A0086FDFCCF80917C0037
:1006D00085FF05C080917900282F30E004C020916B
:1006E000780030917900C90108950E94500308955F
:1006F000EF92FF920F931F93982F803278F487E840
:1007000080937A0080917C0080648076892B80932E
:100710007C0080917A00806480937A0080917A00D6
:1007200086FDFCCFFB01EE24FF24870180917A0037
:10073000806480937A0080917A0086FDFCCF80915E
:100740007C0085FF04C08091790090E004C0809116
:10075000780090917900A0E0B0E0E80EF91E0A1F41
:100760001B1F319719F7CB0196958795603471055A
:1007700038F48E0D9F1D70E00E94A6159B010DC0E0
:10078000A0E0B0E0E80EF91E0A1F1B1F9B0140E02D
:1007900050E0C801B7010E94CD15C9011F910F910A
:1007A000FF90EF90089587E064E170E00E94780385
:1007B00008950E94780308959093100180930F018B
:1007C00008951F9310917C0080917C008F7D809311
:1007D0007C008EE164E170E00E9478038EE164E1C8
:1007E00070E00E9478039C0115FD04C080917C009C
:1007F0008F7D03C080917C00806280937C00B90172
:100800007695679580E090E06C54744D8E4E9F4FC6
:1008100040E050E00E94CD15C9011F9108950E944B
:10082000E1030895A0E0B0E020910F0130911001A4
:1008300040E050E0BC01CD010E9487159B01AC0156
:1008400080917C0085FF0BC0B901CA0161587F4FC0
:100850008F4F9F4F2FEF30E040E050E00AC0B901CA
:10086000CA0161507E4F8F4F9F4F2FEF33E040E022
:1008700050E00E94CD15C90108950E9478030E949E
:10088000120408950E943D04089580917C0085FF24
:1008900006C08091790090E00E9412040895809132
:1008A0007800909179000E9412040895982F803268
:1008B00078F487E880937A0080917C008064807669
:1008C000892B80937C0080917A00806480937A00E9
:1008D00080917A0086FDFCCF0E94450408950E9415
:1008E000560408950E944504089587E064E170E08D
:1008F0000E9478030E94120408950E941204089531
:100900001F9310917C0080917C008F7D80937C00F0
:1009100086E064E170E00E943D049C0115FD04C086
:1009200080917C008F7D03C080917C0080628093E9
:100930007C00C901880F991F820F931F880F991F90
:10094000880F991F8A5792406DE070E00E94BA1597
:10095000CB011F9108950E94800408951F93109168
:100960007C0080917C008F7D80937C0086E064E138
:1009700070E00E943D049C0115FD04C080917C0044
:100980008F7D03C080917C00806280937C0084E135
:1009900090E0AC01249FC001259F900D349F900DE5
:1009A00011248E529F4167E270E00E94BA15CB017C
:1009B0001F9108950E94AE0408951F9310917C002A
:1009C00080917C008F7D80937C0086E06AE070E0FF
:1009D0000E943D04AC0115FD04C080917C008F7D18
:1009E00003C080917C00806280937C009A01220F7A
:1009F000331F240F351F2F5F3F4F36952795C901B1
:100A00001F9108950E94DD0408951F9310917C00AA
:100A100080917C008F7D80937C0086E06AE070E0AE
:100A20000E943D04AC0115FD04C080917C008F7DC7
:100A300003C080917C00806280937C009A01220F29
:100A4000331F240F351FC9011F9108950E9405050A
:100A500008950E94050508950895089580E090E0A6
:100A60000895EF92FF920F931F936AB157985A9887
:100A7000289AE0902501F09026010091270110911D
:100A8000280120E030E041E050E0CA016F9364E0CB
:100A90006A95F1F76F910197C9F75C9ACA016F9354
:100AA00064E06A95F1F76F910197C9F789B15C9895
:100AB000FA016F9364E06A95F1F76F913197C9F786
:100AC0005C9AFA016F9364E06A95F1F76F91319740
:100AD000C9F75C9887FF0BC02C5F3F4FC901A0E0AE
:100AE000B0E08E159F05A007B10708F4CECF6AB914
:100AF0001F910F91FF90EF90089565B190E0AC01C8
:100B000041705070440F551F9C012670307053E0A7
:100B1000220F331F5A95E1F7422B6D7C462B45B9C6
:100B20002BB18870907034E0880F991F3A95E1F7E7
:100B30002F77282B2BB95C9A81E090E0FC016F9312
:100B400064E06A95F1F76F913197C9F75C986F93FC
:100B500064E06A95F1F76F910197C9F70895809164
:100B6000210190912201009711F00E94F4168091CA
:100B7000110190E001972091120130E0AC01429FF9
:100B8000C001439F900D529F900D11240E94471663
:100B90009093220180932101009729F160E070E297
:100BA00008C0E0912101F0912201E40FF51F70834C
:100BB0006F5F462F50E08091110190E001972091E6
:100BC000120130E0FC01E29FC001E39F900DF29F13
:100BD000900D11244817590724F382EF97E06EE235
:100BE00075E00E944C1708958093120160931101E3
:100BF0000E94AF05089580931201609311010E9435
:100C0000AF0508950E94AF05089580E197E2A0E046
:100C1000B0E08093250190932601A0932701B09323
:100C20002801529A209A549A8EE190E00E94410D38
:100C300083E00E94380986E090E00E94410D83E045
:100C40000E94380982E090E00E94410D83E00E94FA
:100C5000380982E090E00E94410D82E00E9438094C
:100C600082E090E00E94410D88E20E94820688E0C6
:100C70000E94820681E00E94820686E00E9482062F
:100C80008CE00E948206089580912901882329F42E
:100C900081E0809329010E9405060895BF92CF92BA
:100CA000DF92EF92FF920F931F93082F162FF42ECF
:100CB0000E9444060E943105B4B0C5B0DAB0EBB072
:100CC0002898112311F05A9A01C05A9884B182636E
:100CD00084B9579A81E0F81629F0802F82958F7099
:100CE0000E947D05802F8F700E947D05DAB8EBB8D9
:100CF000B4B8C5B81F910F91FF90EF90DF90CF90DF
:100D0000BF90089560E042E00E944E0608950F9360
:100D10001F93082F162F08C0002311F480E101C093
:100D200084E10E94820611501123B1F71F910F91A7
:100D300008950E94870608958CE00E948206089517
:100D40000E949C060895813011F48FE001C08EE06E
:100D50000E94820608950E94A3060895A4E0B0E0D0
:100D6000E4EBF6E00C941816182F062F80E8898320
:100D700080EC8A8384E98B8384ED8C83FE01E60F0B
:100D8000F11D8181810F0E9482061093240100933E
:100D900023012496E4E00C9434160E94AE060895D4
:100DA00081E00E9482068091210190912201892B8D
:100DB00019F160E070E208C0E0912101F091220198
:100DC000E40FF51F70836F5F462F50E08091110193
:100DD00090E001972091120130E0FC01E29FC001F8
:100DE000E39F900DF29F900D11244817590724F3AB
:100DF000109224011092230108950E94D0060895B4
:100E000061E042E00E944E0608950F931F93CF9336
:100E1000DF9300E010E8C82FD0E0812F90E08C2312
:100E20009D23892B11F081E301C080E30E9400071C
:100E30000F5F083011F01695F0CFDF91CF911F9121
:100E40000F9108950E94050708958A3010F4805D7F
:100E500001C0895C0E94000708951F93182F829596
:100E60008F700E942507812F8F700E9425071F9188
:100E700008951F93182F892F0E942D07812F0E94FC
:100E80002D071F9108950E94390708950E942D078C
:100E900008956F927F928F929F92AF92BF92CF925E
:100EA000DF92FF920F93DF93CF93CDB7DEB72A97F0
:100EB0000FB6F894DEBF0FBECDBF5B016C010AE038
:100EC0003E010894611C711CFA2CC601B5012AE090
:100ED00030E040E050E00E94CD15C901DA015C012C
:100EE0006D0101504301800E911C80E3F80EC60194
:100EF000B5012AE030E040E050E00E948715F61A84
:100F0000F401F082A114B104C104D104E9F608C0CF
:100F1000F601E00FF11D80810E9400070F5F04C001
:100F20006E010894C11CD11C0A3090F32A960FB6AA
:100F3000F894DEBF0FBECDBFCF91DF910F91FF9030
:100F4000DF90CF90BF90AF909F908F907F906F90E9
:100F500008950E9449070895EF92FF920F931F93FF
:100F60007B018C0197FF0BC010950095F094E094E5
:100F7000E11CF11C011D111D8DE20E940007C8013A
:100F8000B7010E9449071F910F91FF90EF900895BC
:100F90000E94AC070895CF93DF93EC0103C00E9439
:100FA00000072196FE0184918823C9F7DF91CF9134
:100FB00008950E94CB070895CF93DF93EC0103C0FF
:100FC00021960E94000788818823D1F7DF91CF9175
:100FD00008950E94DC0708950E94000708950E946A
:100FE00000070895A0E0B0E0E8EFF7E00C941416D5
:100FF000E82E8091210190912201892B09F405C1ED
:101000002AE0E21609F446C038E0E316C9F48091FC
:1010100024018150809324018F3F51F4809123015A
:10102000815080932301809112018150809324018B
:10103000809123018F3F09F0E2C010922301DDC0AF
:101040008E2D0E940007209123012223C9F030E059
:10105000215030408091120190E0AC01249FC001EA
:10106000259F900D349F900D112420912401E09133
:101070002101F0912201E80FF91FE20FF11DE0823A
:10108000809124018F5F8093240190911201891730
:1010900009F0BBC040912301242F30E08091110161
:1010A00090E001972817390709F0A4C0C0E0D0E00C
:1010B00044C080E06C2F0E94AE06FF246E010894AD
:1010C000C11CD11C35C00F2D10E090E09C01C29FC7
:1010D000C001C39F900DD29F900D1124E09121017A
:1010E000F0912201E00FF11FE80FF91F80810E94AB
:1010F0000007E0912101F09122018091120190E01E
:10110000C89FD001C99FB00DD89FB00D1124E00F2A
:10111000F11FAE0FBF1FAC01C49EC001C59E900D54
:10112000D49E900D1124E80FF91F80818C93F394C5
:1011300080911201F81638F2E60160911101862FB4
:1011400090E00297C817D9070CF4B3CF623008F4C7
:1011500040C0625080E00E94AE06FF24E0E2DE2E36
:1011600034C00F2D10E08091110190E0029730E023
:10117000AC01429FC001439F900D529F900D1124DE
:10118000E0912101F0912201E00FF11FE80FF91F1A
:1011900080810E9400072091110130E022503040F0
:1011A0008091120190E0AC01249FC001259F900D19
:1011B000349F900D1124E0912101F0912201E00F64
:1011C000F11FE80FF91FD082F39420911201F2165B
:1011D00040F260911101615080E00E94AE0600E093
:1011E00004C080E20E9400070F5F8091120108177F
:1011F000C0F303C04F5F40932301109224018091FC
:101200002401609123010E94AE062E2D332727FD75
:101210003095C901CDB7DEB7E8E00C943016EF92F7
:10122000FF920F931F93CF93DF937C01062F10E063
:10123000F3E0000F111FFA95E1F7C0E0D0E09E0146
:10124000200F822F80640E948206F701EC0FFD1FA1
:10125000E4918E2F0E9400072196C830D10579F7BE
:10126000CDB7DEB7E6E00C9432160E940F09089560
:1012700060E041E00E944E0608950F931F93CF93C4
:10128000DF93082F162FEA010BC0002311F488E129
:1012900001C08CE10E948206CE010E94410D1150D6
:1012A000112399F7DF91CF911F910F9108950E941B
:1012B0003D090895282F883068F481E090E002C04D
:1012C000880F991F2A95E2F7282FAAE2B0E0EBE2F7
:1012D000F0E029C08E3080F430E02850304081E0CA
:1012E00090E002C0880F991F2A95E2F7282FA4E208
:1012F000B0E0E5E2F0E017C0853130F020E0A0E09A
:10130000B0E0E0E0F0E00FC030E02E50304081E08F
:1013100090E002C0880F991F2A95E2F7282FA7E2D4
:10132000B0E0E8E2F0E06F3F19F48081822709C065
:10133000662319F08081822B04C09081822F8095D2
:10134000892380838C91822B8C930895089508952E
:10135000E0EBF0E083EF8083808184BDE1EBF0E09F
:1013600082E08083808185BDE4EBF0E010828081A3
:10137000E3EBF0E08083808188BD88B587BD86E09F
:1013800060E00E945A0985E060E00E945A098BE003
:1013900060E00E945A0983E060E00E945A090895C3
:1013A00080912A01882329F481E080932A010E94F8
:1013B000A8090895CF93DF93EC010E94D009D7FDCF
:1013C00002C020E004C0D095C195DF4F21E0CE01DE
:1013D000CF3FD10519F014F08FEF90E0222319F0E0
:1013E00018BC87BD02C088BD17BCDF91CF9108959E
:1013F0000E94DA090895CF93DF93EC010E94D0098F
:10140000D7FD02C020E004C0D095C195DF4F21E098
:10141000CE01CF3FD10519F014F08FEF90E02223D9
:1014200029F01092B4008093B30004C08093B400FC
:101430001092B300DF91CF9108950E94FB090895A7
:101440000F931F938B010E94DA09C8010E94FB09C8
:101450001F910F9108950E94200A089580912B01F9
:1014600008952091C1002F772093C10090933401FB
:101470008093330110922D0160932F01109230015F
:1014800080912B01882329F48091C100806880938A
:10149000C10008952091C1002F772093C10090933F
:1014A00034018093330110922D0160932F0181E06C
:1014B0008093300180912B01882329F48091C10011
:1014C00080688093C10008958091C1008F778093D8
:1014D000C100109234011092330110922D0110922C
:1014E0002F011092300180912B01882329F48091E3
:1014F000C10080688093C100089580912D010895F6
:1015000090912D0120E080912F01981709F421E09E
:10151000822F0895909332018093310110922C0113
:1015200060932E01892B61F080912C01861740F485
:1015300080912B01882321F48091C100806203C037
:101540008091C1008F7D8093C100089580912C010E
:10155000089590912C0120E080912E01981709F4B4
:1015600021E0822F08952091C1002F772093C100A0
:10157000909334018093330110922D0160932F01D9
:101580001092300180912B01882329F48091C100B1
:1015900080688093C10008952091C1002F77209327
:1015A000C100909334018093330110922D01609318
:1015B0002F0181E08093300180912B01882329F451
:1015C0008091C10080688093C10008958091C1001E
:1015D0008F778093C10010923401109233011092E2
:1015E0002D0110922F011092300180912B01882340
:1015F00029F48091C10080688093C1000895909380
:1016000032018093310110922C0160932E01892BBD
:1016100061F080912C01861740F480912B01882382
:1016200021F48091C100806203C08091C1008F7D50
:101630008093C100089520912B01222311F488E9A1
:1016400001C088E18093C100809131019091320105
:10165000892B79F090912C0180912E01981748F4F4
:10166000222339F48091C10080628093C100789474
:1016700008958091C1008F7DF8CF80932B0180E089
:101680000E941B0B08950E943D0B0895EF92FF925C
:101690000F931F937B018C0180E00E941B0B60EA7B
:1016A00075E286E290E06E197F09800B910B33E0C2
:1016B000660F771F881F991F3A95D1F724E0EE0C2B
:1016C000FF1C001F111F2A95D1F7A80197010E9446
:1016D000CD153093C5002093C4001F910F91FF904A
:1016E000EF9008950E94460B08958091C1008F7D70
:1016F0008093C100E0913101F0913201309709F4FB
:101700005DC080912C0190912E01891708F05AC07C
:101710008091C00085FF56C080912C01E80FF11D1B
:1017200080818093C60080912C018F5F80932C0173
:1017300049C080912B01882309F040C08091C100ED
:1017400080628093C1008091C1008F778093C10037
:10175000E0913301F0913401309731F180912D0106
:1017600090912F01891700F58091C00087FF1CC060
:101770002091C60080912D01891750F480912D0190
:10178000E80FF11D208380912D018F5F80932D0143
:1017900090912D0180912F01981731F480913001A3
:1017A000882311F010922D0180912B01882379F468
:1017B0008091C10080688093C10008958091C1002C
:1017C0008F7DBFCF80912C018917C0F7B2CF0895CC
:1017D0000E94750B0895909332018093310110920D
:1017E0002C0160932E01892BA9F080912C01861782
:1017F00088F480912B01882369F48091C100806274
:101800000CC00E94750B90912C0180912E019817AD
:10181000C1F708958091C1008F7D8093C100F3CFFF
:101820000E94EB0B08951F920F920FB60F92112496
:101830002F938F939F93EF93FF932091C600E09196
:101840003301F0913401309781F090912D01809116
:101850002F01981750F480912D01E80FF11D20837E
:1018600080912D018F5F80932D0190912D018091AA
:101870002F01981731F480913001882311F01092D4
:101880002D01FF91EF919F918F912F910F900FBE9E
:101890000F901F9018951F920F920FB60F92112460
:1018A0008F939F93EF93FF93E0913101F091320179
:1018B0003097F9F080912C0190912E01891738F51D
:1018C0008091C00085FF23C080912C01E80FF11D9D
:1018D00080818093C60080912C018F5F80932C01C2
:1018E00016C080912B01882321F48091C100806271
:1018F00003C08091C1008F7D8093C100FF91EF9163
:101900009F918F910F900FBE0F901F90189580910F
:101910002C01891770F7E5CFAF92BF92CF92DF927B
:10192000EF92FF920F931F938A012091C1002F77AE
:101930002093C100909334018093330110922D01C4
:1019400060932F011092300180912B01882329F49C
:101950008091C10080688093C1000E94720D5B017C
:101960006C01780100E010E00E94750B90912D0150
:1019700080912F01981711F480E00CC00E94720D25
:101980006A197B098C099D096E157F0580079107EF
:1019900058F381E01F910F91FF90EF90DF90CF906F
:1019A000BF90AF9008950E948C0C08952F928F9352
:1019B0009F932FB6809136019091370101968093C5
:1019C00036019093370190E080913801891F809310
:1019D000380190913E019C5F90933E0180913D01C2
:1019E00080519742C0F090933E0180933D018091D9
:1019F000390190913A0101968093390190933A010F
:101A000090E080913B01891F80933B0180913C01D4
:101A1000891F80933C012FBE9F918F912F90189525
:101A20006F5F7F4F8F4F9F4F660F771F881F991FE4
:101A300025E030E040E050E00E94CD15CA01B90138
:101A4000089528EE33E009C0F9016F9364E06A95C8
:101A5000F1F76F913197C9F701970097A9F70895AA
:101A60006F5F7F4F8F4F9F4F660F771F881F991FA4
:101A700025E030E040E050E00E94CD15CA01B901F8
:101A8000089528EE33E009C0F9016F9364E06A9588
:101A9000F1F76F913197C9F701970097A9F708956A
:101AA000A0E7B0E08C918E7F8C93E0EBF0E080813A
:101AB00083608083E1EBF0E08081807F80838081A0
:101AC00082608083B89A8C9181608C937894089519
:101AD00080913F01882329F481E080933F010E9497
:101AE000500D08950E94680DE0E7F0E080818E7F40
:101AF00080832091390130913A0140913B0150910E
:101B00003C01808181608083B901CA0108950E94EF
:101B1000720D08950E94680D809170008E7F8093F1
:101B200070006091B2008091350190913601A091D2
:101B30003701B0913801B89905C0262F30E040E058
:101B400050E011C08091B2002091350130913601F2
:101B5000409137015091380120503F4F4F4F5F4F18
:101B600090E0A0E0B0E0282B392B4A2B5B2B809132
:101B70007000816080937000B901CA0108950E94CD
:101B80008A0D08950E94680DE0E7F0E080818E7F65
:101B900080831092390110923A0110923B01109209
:101BA0003C0110923E0110923D0180818160808352
:101BB00008950E94C20D08958091400190914101C5
:101BC00008958091420190914301089580914401CC
:101BD00090914501089580914601909147010895A3
:101BE000809140019091410108958091420190912E
:101BF0004301089580914401909145010895809199
:101C00004601909147010895089580E491E00E9473
:101C1000F713089580E491E00E941E1308959C013B
:101C2000462F80E491E0B90121E00E941E1308953F
:101C30009C01462F80E491E0B90120E00E941E1330
:101C4000089580E491E00E94611208959C01462F5E
:101C500080E491E0B9010E946112089580E491E06E
:101C60000E9417150895682F80E491E00E941715CF
:101C7000089580E491E00E943A0F089580E491E095
:101C80000E943A0F089580E491E00E94520F089557
:101C900080E491E00E94520F08959C01462F80E459
:101CA00091E0B9010E94C21108959C01462F80E481
:101CB00091E0B9010E94C21108950F93DF93CF9371
:101CC00000D000D00F92CDB7DEB79C01962FDE0179
:101CD0001196E3E1F1E085E001900D928150E1F78A
:101CE000BE016F5F7F4F992329F080E491E045E0CA
:101CF0000FEF04C080E491E045E003E10E94BA0FD9
:101D000080E491E00E943A0F0E94C20D0F900F9064
:101D10000F900F900F90CF91DF910F91089561E098
:101D20000E945D0E089560E00E945D0E089580E4BB
:101D300091E00E94690F0895A0918601B0918701FA
:101D40001C96ED91FC911D97309779F08081199642
:101D50009C911997892B80831A96ED91FC911B9782
:101D6000808119969C91892B80830895A09186018A
:101D7000B09187011C96ED91FC911D97309781F0F1
:101D8000808119969C911997892B80831A96ED91E1
:101D9000FC911B97908119968C9180958923808363
:101DA0000895E0918601F0918701808191810895E5
:101DB000E0918601F0918701828193810895E091FD
:101DC0008601F0918701848195810895E0918601D3
:101DD000F0918701868197810895FC01118210821C
:101DE000138212821582148217821682613118F0D2
:101DF00080E1808701C06087208B483060F481E0FB
:101E000090E002C0880F991F4A95E2F74AE250E03D
:101E10002BE230E029C04E3080F4242F30E02850EF
:101E2000304081E090E002C0880F991F2A95E2F7C8
:101E300044E250E025E230E017C0453130F080E068
:101E400040E050E020E030E00FC0242F30E02E5082
:101E5000304081E090E002C0880F991F2A95E2F798
:101E600047E250E028E230E08187338722875587B8
:101E700044870895DC011C96ED91FC911D973097E5
:101E800081F0808119969C911997892B80831A96ED
:101E9000ED91FC911B97908119968C9180958923E7
:101EA00080830895DC011C96ED91FC911D9730977D
:101EB00079F0808119969C911997892B80831A96C5
:101EC000ED91FC911B97808119969C91892B8083C1
:101ED0000895DC0120E040C0ED91FC91119730970E
:101EE00061F0822F90E0880F991FE80FF91F1E966E
:101EF0008D919C911F97918380831496ED91FC9115
:101F00001597309761F0822F90E0880F991FE80FA6
:101F1000F91F1E968D919C911F9791838083129635
:101F2000ED91FC911397309741F0822F90E0880F4C
:101F3000991FE80FF91F118210821696ED91FC91FE
:101F40001797309741F0822F90E0880F991FE80F84
:101F5000F91F118210822F5F18968C9118972817FD
:101F600008F4BACF089580918601909187010E946C
:101F7000690F0895A0E0B0E0E0ECFFE00C941216C9
:101F8000EC015B01642F7901402F20E00E94ED0EEF
:101F9000CE018F5B9F4FFC011082DE01AE5BBF4F15
:101FA0001C92FE01ED5BFF4F1082FF86EE8640E043
:101FB00061E070E06F017D018C014EC0F501E40F1E
:101FC000F11D8081883050F49B0102C0220F331F25
:101FD0008A95E2F7922F29E230E01FC08E3060F43C
:101FE00090E00897FB0102C0EE0FFF1F8A95E2F711
:101FF0009E2F23E230E011C0853120F090E020E0F8
:1020000030E00BC090E00E979B0102C0220F331FFF
:102010008A95E2F7922F26E230E0E42FF0E0DE012D
:10202000AE0FBF1F51969C93EE0FFF1FEC0FFD1FCD
:1020300032A321A32332310511F4F80109C026325D
:10204000310511F4F70104C02932310521F4F601FC
:102050008081982B90834F5F8885481708F4AECF16
:10206000CDB7DEB7EAE00C942E160F930E94BA0F9C
:102070000F9108950F930E94BA0F0F910895A0E059
:10208000B0E0E5E4F0E10C941016EC015B01CF5BED
:10209000DF4F4991A9918880C354D04090E009C096
:1020A000E92FF0E0EE0FFF1FEA0DFB1D11821082F9
:1020B0009F5F88859817A0F384B1CF5BDF4F39917C
:1020C000832B84B987B12991822B87B98AB19881F2
:1020D000C354D040892B8AB985B1832B85B988B187
:1020E000822B88B98BB1892B8BB9EAE0F0E06F9332
:1020F00064E06A95F1F76F913197C9F784B1309533
:10210000832384B987B12095822387B98AB19095BA
:1021100089238AB985B1382335B988B1282328B9EC
:102120008BB198239BB99090B000C090B100809182
:10213000B00083608093B00082E08093B100D090C3
:10214000B20060E070E03AC05091B2005D19650FD6
:10215000711DE3B0E41609F04FC0F6B0FA1609F0AD
:102160004BC089B1881509F047C025C0A42FB0E045
:102170009D01220F331F8501020F131FF80180817B
:102180009181892BA1F42C0F3D1FF90181A192A10E
:10219000FC01208130E0AC0FBD1F51968C9190E086
:1021A00028233923232B19F4F801718360834F5FAF
:1021B00088854817D8F2D50E4E2DAF2D8E859F8578
:1021C0006817790708F29092B000C092B10020E041
:1021D0000FC0E22FF0E0EE0FFF1FEA0DFB1D808124
:1021E0009181892B21F48E859F85918380832F5F38
:1021F0008885281770F305C0E3B0F6B089B040E0D9
:10220000D7CFCDB7DEB7ECE00C942C16EF92FF924F
:102210000F931F93CF93DF93EC017B01122F642F59
:10222000402F21E00E94ED0E19A31AA230E041E0F8
:1022300050E013C0E32FF0E0D701AE0FBF1FEC0F4B
:10224000FD1F8C91818BCA010C9002C0880F991FD1
:102250000A94E2F7282B2AA33F5F88852AA1381722
:1022600048F32F732AA38FEF93E09F878E87CDB714
:10227000DEB7E6E00C9432160F930E9406110F9120
:1022800008950F930E9406110F910895A0E0B0E009
:10229000ECE4F1E10C941416EC018B01D0907C007D
:1022A000E0907A00C7B0F8B080917A0086FDFCCF4C
:1022B00090E009C0E92FF0E0EE0FFF1FE00FF11FE3
:1022C000118210829F5F88859817A0F397B18AA129
:1022D0008095982397B998B1892388B987E8809326
:1022E0007A0050E025C0FE01E40FF11D8189806471
:1022F00080937C0080917A00806480937A00809142
:102300007A0086FDFCCFE42FF0E0EE0FFF1FE00F18
:10231000F11F209178003091790080819181820FA6
:10232000931F918380834F5F88854817E0F25F5F3A
:1023300089A1581710F040E017C040E0F5CFE42F16
:10234000F0E0EE0FFF1FE00FF11F69A1862F90E074
:102350009595879520813181820F931F70E00E94AF
:10236000A615718360834F5F8885481740F3D0922C
:102370007C00E0927A00F8B8C7B8CDB7DEB7E8E0E5
:102380000C943016A0E2B0E0E8ECF1E10C941316E6
:102390008C017B01D42E842F81508230B0F4D8017F
:1023A0001C96ED91FC911D97309779F080811996DC
:1023B0009C911997892B80831A96ED91FC911B971C
:1023C000808119969C91892B8083F80180898823CC
:1023D00049F5C02EB12EC801B7010E943F10D801A7
:1023E0001C96ED91FC911D97309781F08081199694
:1023F0009C911997892B80831A96ED91FC911B97DC
:10240000908119968C91809589238083B2E0DB16A8
:1024100009F053C08C2D9B2DBE016F5F7F4F0E9432
:102420003F1027C0C02EB12EC801B7010E9446112F
:10243000D8011C96ED91FC911D97309781F0808119
:1024400019969C911997892B80831A96ED91FC918E
:102450001B97908119968C91809589238083B2E097
:10246000DB1659F58C2D9B2DBE016F5F7F4F0E94AF
:10247000461140E0BE016F5F7F4F1AC0E42FF0E0CD
:10248000EE0FFF1F6701CE0EDF1EE60FF71FD8010C
:102490001E962D913C911F9780819181281B390BAD
:1024A000F60180819181820F931F918380834F5F1A
:1024B000D80118968C91481708F3A096E9E00C947F
:1024C0002F16A0E0B0E0E7E6F2E10C941116EC0163
:1024D000162F072F942E22E0421711F0442351F4B7
:1024E0008C819D81892B09F4A4C08E819F81892BC9
:1024F00009F49FC0892D8150823050F488819981E0
:10250000892B09F496C08A819B81892B09F491C09B
:10251000CE01612F702F492D0E94C211812F902F63
:102520009C015901CC24DD2400E010E07CC081E056
:10253000981669F4EA81FB81E00FF11F2081318157
:10254000E881F981E00FF11F408151813DC0AC81EC
:10255000BD81992059F4EE81FF81E00FF11F2081A8
:102560003181A00FB11F4D915C912EC0A00FB11F02
:102570008D919C91E881F981E00FF11F20813181DB
:10258000EE85FF858217930710F4AF0105C0A901FE
:102590004E0F5F1F481B590BEE81FF81E00FF11FAB
:1025A00060817181EA81FB81E00FF11F808191815F
:1025B000EE85FF856817790710F49F0105C09C011F
:1025C0002E0F3F1F261B370B7901E41AF50A01F184
:1025D000F5016081718180E090E09A0140E050E077
:1025E000621B730B840B950B28EE33E040E050E048
:1025F0000E948715970140E050E00E94EF15C90145
:10260000F3E0293E3F0714F088EE93E097FF02C005
:1026100080E090E0F501819391935F010894C11CE3
:10262000D11C0E5F1F4F888590E0C816D9060CF4A8
:102630007ECFCDB7DEB7EBE00C942D16A4E0B0E072
:10264000E4E2F3E10C940A168C01F62EE72E2A83BD
:102650000E946112D8011896BC91B9832F2D3E2D8E
:10266000C9018C01552444246624772443011C822B
:102670001B82AA24BB246501B8EE2B2EB3E03B2EAF
:1026800032C0F801E080F180FA81FF2321F091014E
:102690002E193F09790139ECE316F10414F04424B2
:1026A000439483E3E816F1049CF0B701882777FD93
:1026B0008095982FA60195010E948715660E771EBA
:1026C000881E991EAB81BC81AE0DBF1DBC83AB8340
:1026D000539488EE93E0A0E0B0E0A80EB91ECA1EA5
:1026E000DB1E0E5F1F4F9981591658F2442021F5C9
:1026F000692F70E084EF91E0DC016A9FC0016B9F5D
:10270000900D7A9F900D1124845F91402091840157
:1027100030918501281739071CF440E050E01AC0B9
:1027200088EE93E0689FA001699F500D789F500D3F
:102730001124485E53400EC0EB81FC819F0140E0B4
:1027400050E0C401B3010E94CD15A9013093850169
:1027500020938401CA012496E2E10C9426169C0180
:10276000462F8091860190918701B90121E00E9456
:102770001E1308959C01462F809186019091870138
:10278000B90120E00E941E1308959C01462F8091FC
:10279000860190918701B9010E94611208959C0100
:1027A000462F8091860190918701B9010E94C21144
:1027B0000895CF93DF93EC018A819B81009711F0FC
:1027C0000E94F4168E819F81009711F00E94F416EA
:1027D00088819981009711F00E94F4168C819D8167
:1027E000009711F00E94F416DF91CF910895CF93D6
:1027F000DF93EC018A819B81009711F00E94F4160F
:102800008E819F81009711F00E94F4168881998132
:10281000009711F00E94F4168C819D81009711F0B1
:102820000E94F416DF91CF910895A3E6B0E0EBE1AA
:10283000F4E10C940A167C015B016A01A2962FAFA9
:10284000A297DA018D919C91892B11F5F701808572
:1028500090E0880F991F0E944716D6018D939C9394
:10286000009709F4DFC020E030E00CC0C901880FF8
:10287000991FD601ED91FC91E80FF91F118210828A
:102880002F5F3F4FF701808590E02817390774F3D9
:10289000D5018D919C91892B89F000E010E03E01DB
:1028A0000894611C711C41E4242E312C2C0E3D1E19
:1028B00031E2432E512C4C0E5D1E28C0F70180855D
:1028C00090E0880F991F0E944716D5018D939C9325
:1028D000009709F4A7C020E030E011C0C901880FBB
:1028E000991FD501ED91FC91E80FF91FD7011E96B4
:1028F0008D919C911F97918380832F5F3F4FF701AC
:10290000808590E0281739074CF3C7CFC701B30182
:10291000A2964FADA2970E94C211D70118968C9132
:10292000882E9924A101F301A4965FAE4EAEA49720
:1029300060E070E034C00115110559F0A496AEAD09
:10294000BFADA4972D913C918081918128173907C3
:1029500058F480819181A496AEADBFADA4978D93BC
:102960009C930115110541F0DA012D913C91808174
:1029700091818217930728F480819181DA018D93E8
:102980009C936F5F7F4F4E5F5F4F3296A4968EADE4
:102990009FADA4970296A4969FAF8EAFA49768159B
:1029A00079054CF20F5F1F4F0A30110509F0AECFC9
:1029B00040E050E020E030E08E010F5B1F4FBE0191
:1029C0006F5D7F4F28C0F801E20FF31F8080918078
:1029D000F601A081B181A20FB31F8D919C91119737
:1029E0008815990510F48D929C92FB01E20FF31F5C
:1029F00080809180F501A081B181A20FB31F8D91DC
:102A00009C9111978816990610F48D929C924F5FB5
:102A10005F4F2E5F3F4FD70118968C9190E048177B
:102A200059078CF2CD59DF4FE2E10C9426161F9323
:102A3000CF93DF93EC01162F862F8150823040F424
:102A4000AE014E5F5F4FCE01BE0121E00E94151422
:102A5000123011F0112349F4AE014A5F5F4FCE01ED
:102A60002496BE0120E00E941514DF91CF911F91A2
:102A70000895682F80918601909187010E94171513
:102A80000895A0E0B0E0E7E4F5E10C9415168C01A0
:102A9000F62EE42ED22E83E290E00E944716EC013F
:102AA000009711F480E00BC0B8014F2D2E2D0D2D95
:102AB0000E940611D0938701C093860181E0CDB7B3
:102AC000DEB7E7E00C943116A0E0B0E0EAE6F5E10D
:102AD0000C9414168C01D62E7A01C22E84E490E058
:102AE0000E944716EC01009711F480E00BC0B8017A
:102AF0004D2D97010C2D0E94BA0FD0938701C093E2
:102B0000860181E0CDB7DEB7E8E00C943016629F15
:102B1000D001739FF001829FE00DF11D649FE00DD5
:102B2000F11D929FF00D839FF00D749FF00D659F36
:102B3000F00D9927729FB00DE11DF91F639FB00D35
:102B4000E11DF91FBD01CF0111240895AA1BBB1B74
:102B500051E107C0AA1FBB1FA617B70710F0A61B9D
:102B6000B70B881F991F5A95A9F780959095BC01BE
:102B7000CD01089597FB092E07260AD077FD04D0D2
:102B8000E5DF06D000201AF4709561957F4F089517
:102B9000F6F7909581959F4F0895A1E21A2EAA1BF2
:102BA000BB1BFD010DC0AA1FBB1FEE1FFF1FA217FD
:102BB000B307E407F50720F0A21BB30BE40BF50BFA
:102BC000661F771F881F991F1A9469F76095709583
:102BD000809590959B01AC01BD01CF01089597FBB5
:102BE000092E05260ED057FD04D0D7DF0AD0001CD1
:102BF00038F450954095309521953F4F4F4F5F4F9A
:102C00000895F6F790958095709561957F4F8F4F59
:102C10009F4F08952F923F924F925F926F927F92B3
:102C20008F929F92AF92BF92CF92DF92EF92FF92DC
:102C30000F931F93CF93DF93CDB7DEB7CA1BDB0B88
:102C40000FB6F894DEBF0FBECDBF09942A8839882D
:102C500048885F846E847D848C849B84AA84B98434
:102C6000C884DF80EE80FD800C811B81AA81B98140
:102C7000CE0FD11D0FB6F894DEBF0FBECDBFED0154
:102C80000895EE0FFF1F0590F491E02D0994CF9366
:102C9000DF93BC018230910510F462E070E0A091F6
:102CA000F802B091F902ED01E0E0F0E040E050E020
:102CB00021C0888199818617970769F48A819B8151
:102CC000309719F09383828304C09093F902809324
:102CD000F802FE0134C06817790738F44115510530
:102CE00019F08417950708F4AC01FE018A819B81D5
:102CF0009C01E9012097E9F641155105A9F1CA01A6
:102D0000861B970B049708F4BA01E0E0F0E02AC0B4
:102D10008D919C91119784179507F9F464177507A5
:102D200081F412968D919C911397309719F09383AB
:102D3000828304C09093F9028093F802FD013296D9
:102D40004FC0CA01861B970BFD01E80FF91F619365
:102D5000719302978D939C9343C0FD01828193816F
:102D60009C01D9011097A1F68091F6029091F7028B
:102D7000892B41F480911A0190911B019093F702E5
:102D80008093F60240911C0150911D01411551059F
:102D900041F44DB75EB78091180190911901481B1D
:102DA000590B2091F6023091F70224173507B0F441
:102DB000CA01821B930B8617970780F0AB014E5F09
:102DC0005F4F8417950750F0420F531F5093F7023F
:102DD0004093F602F9016193719302C0E0E0F0E0E4
:102DE000CF01DF91CF910895CF93DF93009709F43E
:102DF00050C0EC0122971B821A82A091F802B09178
:102E0000F902109709F140E050E0AC17BD0708F156
:102E1000BB83AA83FE0121913191E20FF31FAE170C
:102E2000BF0779F48D919C911197280F391F2E5F60
:102E30003F4F3983288312968D919C9113979B83E2
:102E40008A834115510571F4D093F902C093F802B9
:102E500020C012968D919C911397AD01009711F0AF
:102E6000DC01D3CFFA01D383C28321913191E20FE8
:102E7000F31FCE17DF0769F488819981280F391F66
:102E80002E5F3F4FFA01318320838A819B81938398
:102E90008283DF91CF9108950F931F93CF93DF9398
:102EA0008C01EB01009731F46115710519F420E0F4
:102EB00030E038C081E090E06EE070E00E9498174A
:102EC000FC019C01009771F180E88383209771F0E9
:102ED000D387C28781E883838091FA029091FB02B5
:102EE000892B21F4F093FB02E093FA0201151105FE
:102EF000C9F0118700878381826083838091FC02FF
:102F00009091FD02892B71F4F093FD02E093FC0295
:102F10008091FE029091FF02892B21F4F093FF0231
:102F2000E093FE02C901DF91CF911F910F910895A7
:102F30000F931F93CF93DF93689F8001699F100DBC
:102F4000789F100D1124C8010E944716EC010097CC
:102F500029F060E070E0A8010E94B417CE01DF9173
:102F6000CF911F910F910895DC0101C06D934150E5
:102F70005040E0F7089510E0CAE6D0E004C0FE013A
:102F80000E9443162296CC36D107C9F7F894FFCF9A
:102F900042617474657279006D56003C00061588B4
:0E2FA0001302080E0F10111220000003000093
:00000001FF
